:0300000002041ADD
:0C041A00787FE4F6D8FD7581780204615B
:1001CB001501681201681500781600781700F016F3
:1001DB0000F01500F01700781800781900F01900DE
:1001EB00781900F01A00781900F01900F01800F0D7
:1001FB001700F01800F01701681501681200F013D2
:10020B0000781200F01100F01200781300F01201C8
:10021B00E01001E01100781000F00F00F0100078F2
:10022B001100F01501901600C81700C81700C8166A
:10023B0000C8150190160190170190160190150139
:10024B00901601901701901601901701901500C898
:10025B001900C81500C81500C817006418006417EA
:10026B0000C8160190180078FF00781A0078FF007C
:10027B00781C0078FF00781C003CFF003C180078CD
:10028B00FF007818003CFF003C1A0078FF00781C38
:10029B000078FF00781C0078FF0078190078FF00C9
:1002AB00781B0078FF00781D0078FF00781D003C5C
:1002BB00FF003C190078FF00781B003CFF003C1D41
:1002CB000078FF0078200078FF00781F0078FF008F
:1002DB00781E0078FF00781C0078FF00781A0078F1
:1002EB00FF00781A003CFF003C1E0078FF00781ED0
:1002FB00003CFF003C1C0078FF00781A0078FF00E0
:10030B00781A0078FF00781B0078FF0078190078C6
:10031B00FF0078170078FF007817003CFF003C1BAC
:10032B000078FF00781B003CFF003C190078FF00B1
:0D033B0078170078FF0078170078FF007831
:040507000277000077
:0D060B00D200D2AFD2A8D2881205EF80FB3A
:0605EF00E5224521601524
:1005F5007508007509487BFF7A027970AD09AC086A
:030605001204A636
:0306080080E52268
:030003000205CF24
:1005CF00C0E00578E5787002057730E00875210006
:1005DF007522018008C2B7752100752200D0E03264
:10050B0002210000205423002100250029002C008B
:10051B00310037003E004100490052005700620095
:10052B006E007B0083009300A500AF00C400DC00CD
:10053B00F701060126014A015D018801B801EE02AF
:10054B000B024B029302BA0310037003DC04170473
:0B055B009705270575062006E007B88D
:080348008E148F158C168D1721
:10035000758901E51545146041AE14AF15AB07AAC8
:1003600006E4F9F87F1D7E087D07FC1205678E19EB
:100370008F1AAE16AF17AB07AA06E4F9F8AE14AFA2
:1003800015FCFD12007DE47BF47A01F9F812056793
:100390008F1E8E1D8D1C8C1B8011751903751A9A6A
:1003A000E485171E85161DF51CF51BAE19AF1AAB9B
:1003B00007AA06E4C39BFFE49AFE74019400FDE4DF
:1003C0009400FCE4FB7A01F9F81205678F18AE1966
:1003D000AF1AAB07AA06E4C39BFFE49AFE7401942C
:1003E00000FDE49400FCE4FB7A01F9F8120567854E
:1003F000188C8B8AD28CC2B7781B74FF1200CEEC9B
:100400004D4E4F6014308DFDC28DE51545146002D0
:09041000B2B785188C8B8A80DFDD
:0104190022C0
:1005AB008F118C128D13E511B4FF05E4FFFE801043
:1005BB00E51125E02423F8E6FE08E6FFAD13AC12A7
:0405CB0012034822AD
:0A04A6008B0A8A0B890C8C0D8D0E59
:1004B000E4F50FF510C3E510950EE50F950D5046C8
:1004C000E52245216040AB0AAA0BA90C8510828564
:1004D0000F8374031200EC120006FFC007AE0FAFCB
:1004E000107C007D03120033E92FF9EA3EFA9000F8
:1004F00001120045FDACF0D0071205AB0510E51068
:0605000070B3050F80AF8F
:0105060022D2
:1004260002060BE493A3F8E493A34003F68001F2DB
:1004360008DFF48029E493A3F85407240CC8C333D7
:10044600C4540F4420C8834004F456800146F6DFA6
:10045600E4800B0102040810204080900507E47E2A
:10046600019360BCA3FF543F30E509541FFEE4939B
:10047600A360010ECF54C025E060A840B8E493A362
:10048600FAE493A3F8E493A3C8C582C8CAC583CA8D
:10049600F0A3C8C582C8CAC583CADFE9DEE780BE45
:010566000094
:10000600BB010CE58229F582E5833AF583E02250AF
:1000160006E92582F8E622BBFE06E92582F8E222F9
:0D002600E58229F582E5833AF583E4932213
:10003300EF8DF0A4A8F0CF8CF0A428CE8DF0A42EE1
:02004300FE229B
:10004500BB0110E58229F582E5833AF583E0F5F0F9
:10005500A3E0225009E92582F886F008E622BBFED6
:100065000AE92582F8E2F5F008E222E5832AF5831C
:08007500E993F5F0A3E99322E1
:10007D00E88FF0A4CC8BF0A42CFCE98EF0A42CFC22
:10008D008AF0EDA42CFCEA8EF0A4CDA8F08BF0A4A0
:10009D002DCC3825F0FDE98FF0A42CCD35F0FCEBFF
:1000AD008EF0A4FEA9F0EB8FF0A4CFC5F02ECD39C4
:0F00BD00FEE43CFCEAA42DCE35F0FDE43CFC2231
:10056700C2D5E830E70FB2D5E4C39BFBE49AFAE4BF
:1005770099F9E498F8EC30E717B2D512059D120106
:1005870039E4C39BFBE49AFAE499F9E498F8800309
:1005970012013930D50DE4C39FFFE49EFEE49DFDB3
:0405A700E49CFC22B2
:1000CC007401FF3395E0FEFDFC080808E6CF2FF61F
:1000DC0018E6CE3EF618E6CD3DF618E6CC3CF622F8
:1000EC00F5F0C582A4C582C5F0C583A42583F5832C
:0100FC0022E1
:1000FD0075F008758200EF2FFFEE33FECD33CDCCBA
:10010D0033CCC58233C5829BED9AEC99E58298403C
:10011D000CF582EE9BFEED9AFDEC99FC0FD5F0D619
:10012D00E4CEFBE4CDFAE4CCF9A88222B800C1B943
:10013D000059BA002DEC8BF084CFCECDFCE5F0CB81
:10014D00F97818EF2FFFEE33FEED33FDEC33FCEBBA
:10015D0033FB10D703994004EB99FB0FD8E5E4F975
:10016D00FA227818EF2FFFEE33FEED33FDEC33FC62
:10017D00C933C910D7059BE99A4007EC9BFCE99A56
:10018D00F90FD8E0E4C9FAE4CCFB2275F010EF2F9B
:10019D00FFEE33FEED33FDCC33CCC833C810D7079B
:1001AD009BEC9AE899400AED9BFDEC9AFCE899F8D6
:0E01BD000FD5F0DAE4CDFBE4CCFAE4C8F92269
:00000001FF
